{
  "contractName": "Voting",
  "abi": [
    {
      "inputs": [],
      "stateMutability": "nonpayable",
      "type": "constructor"
    },
    {
      "inputs": [],
      "name": "admin",
      "outputs": [
        {
          "internalType": "address",
          "name": "",
          "type": "address"
        }
      ],
      "stateMutability": "view",
      "type": "function",
      "constant": true
    },
    {
      "inputs": [
        {
          "internalType": "uint256",
          "name": "",
          "type": "uint256"
        }
      ],
      "name": "candidates",
      "outputs": [
        {
          "internalType": "uint256",
          "name": "id",
          "type": "uint256"
        },
        {
          "internalType": "string",
          "name": "name",
          "type": "string"
        },
        {
          "internalType": "uint256",
          "name": "voteCount",
          "type": "uint256"
        },
        {
          "internalType": "address",
          "name": "candidateAddress",
          "type": "address"
        }
      ],
      "stateMutability": "view",
      "type": "function",
      "constant": true
    },
    {
      "inputs": [],
      "name": "candidatesCount",
      "outputs": [
        {
          "internalType": "uint256",
          "name": "",
          "type": "uint256"
        }
      ],
      "stateMutability": "view",
      "type": "function",
      "constant": true
    },
    {
      "inputs": [
        {
          "internalType": "address",
          "name": "",
          "type": "address"
        }
      ],
      "name": "voters",
      "outputs": [
        {
          "internalType": "bool",
          "name": "authorized",
          "type": "bool"
        },
        {
          "internalType": "address",
          "name": "voterAddress",
          "type": "address"
        },
        {
          "internalType": "string",
          "name": "name",
          "type": "string"
        },
        {
          "internalType": "bool",
          "name": "voted",
          "type": "bool"
        },
        {
          "internalType": "uint256",
          "name": "vote",
          "type": "uint256"
        }
      ],
      "stateMutability": "view",
      "type": "function",
      "constant": true
    },
    {
      "inputs": [
        {
          "internalType": "address",
          "name": "_candidateAddress",
          "type": "address"
        }
      ],
      "name": "addCandidate",
      "outputs": [],
      "stateMutability": "nonpayable",
      "type": "function"
    },
    {
      "inputs": [
        {
          "internalType": "address",
          "name": "_voterAddress",
          "type": "address"
        },
        {
          "internalType": "string",
          "name": "_name",
          "type": "string"
        }
      ],
      "name": "addVoter",
      "outputs": [],
      "stateMutability": "nonpayable",
      "type": "function"
    }
  ],
  "bytecode": "0x608060405234801561001057600080fd5b50336000806101000a81548173ffffffffffffffffffffffffffffffffffffffff021916908373ffffffffffffffffffffffffffffffffffffffff160217905550610f9c806100606000396000f3fe608060405234801561001057600080fd5b50600436106100625760003560e01c80632d35a8a2146100675780633477ee2e146100855780633acd75f8146100b8578063a3ec138d146100d4578063d9e95a9814610108578063f851a44014610124575b600080fd5b61006f610142565b60405161007c9190610bea565b60405180910390f35b61009f600480360381019061009a9190610a1d565b610148565b6040516100af9493929190610c05565b60405180910390f35b6100d260048036038101906100cd91906109a0565b610220565b005b6100ee60048036038101906100e991906109a0565b6104f3565b6040516100ff959493929190610b30565b60405180910390f35b610122600480360381019061011d91906109c9565b6105eb565b005b61012c610847565b6040516101399190610b15565b60405180910390f35b60035481565b600160205280600052604060002060009150905080600001549080600101805461017190610d4d565b80601f016020809104026020016040519081016040528092919081815260200182805461019d90610d4d565b80156101ea5780601f106101bf576101008083540402835291602001916101ea565b820191906000526020600020905b8154815290600101906020018083116101cd57829003601f168201915b5050505050908060020154908060030160009054906101000a900473ffffffffffffffffffffffffffffffffffffffff16905084565b60008054906101000a900473ffffffffffffffffffffffffffffffffffffffff1673ffffffffffffffffffffffffffffffffffffffff163373ffffffffffffffffffffffffffffffffffffffff16146102ae576040517f08c379a00000000000000000000000000000000000000000000000000000000081526004016102a590610baa565b60405180910390fd5b60011515600260008373ffffffffffffffffffffffffffffffffffffffff1673ffffffffffffffffffffffffffffffffffffffff16815260200190815260200160002060000160009054906101000a900460ff16151514610344576040517f08c379a000000000000000000000000000000000000000000000000000000000815260040161033b90610bca565b60405180910390fd5b6003600081548092919061035790610db0565b919050555060405180608001604052806003548152602001600260008473ffffffffffffffffffffffffffffffffffffffff1673ffffffffffffffffffffffffffffffffffffffff16815260200190815260200160002060010180546103bc90610d4d565b80601f01602080910402602001604051908101604052809291908181526020018280546103e890610d4d565b80156104355780601f1061040a57610100808354040283529160200191610435565b820191906000526020600020905b81548152906001019060200180831161041857829003601f168201915b50505050508152602001600081526020018273ffffffffffffffffffffffffffffffffffffffff1681525060016000600354815260200190815260200160002060008201518160000155602082015181600101908051906020019061049b92919061086b565b506040820151816002015560608201518160030160006101000a81548173ffffffffffffffffffffffffffffffffffffffff021916908373ffffffffffffffffffffffffffffffffffffffff16021790555090505050565b60026020528060005260406000206000915090508060000160009054906101000a900460ff16908060000160019054906101000a900473ffffffffffffffffffffffffffffffffffffffff169080600101805461054f90610d4d565b80601f016020809104026020016040519081016040528092919081815260200182805461057b90610d4d565b80156105c85780601f1061059d576101008083540402835291602001916105c8565b820191906000526020600020905b8154815290600101906020018083116105ab57829003601f168201915b5050505050908060020160009054906101000a900460ff16908060030154905085565b60008054906101000a900473ffffffffffffffffffffffffffffffffffffffff1673ffffffffffffffffffffffffffffffffffffffff163373ffffffffffffffffffffffffffffffffffffffff1614610679576040517f08c379a000000000000000000000000000000000000000000000000000000000815260040161067090610baa565b60405180910390fd5b60001515600260008473ffffffffffffffffffffffffffffffffffffffff1673ffffffffffffffffffffffffffffffffffffffff16815260200190815260200160002060000160009054906101000a900460ff1615151461070f576040517f08c379a000000000000000000000000000000000000000000000000000000000815260040161070690610b8a565b60405180910390fd5b6040518060a001604052806001151581526020018373ffffffffffffffffffffffffffffffffffffffff1681526020018281526020016000151581526020016000815250600260008473ffffffffffffffffffffffffffffffffffffffff1673ffffffffffffffffffffffffffffffffffffffff16815260200190815260200160002060008201518160000160006101000a81548160ff02191690831515021790555060208201518160000160016101000a81548173ffffffffffffffffffffffffffffffffffffffff021916908373ffffffffffffffffffffffffffffffffffffffff160217905550604082015181600101908051906020019061081592919061086b565b5060608201518160020160006101000a81548160ff021916908315150217905550608082015181600301559050505050565b60008054906101000a900473ffffffffffffffffffffffffffffffffffffffff1681565b82805461087790610d4d565b90600052602060002090601f01602090048101928261089957600085556108e0565b82601f106108b257805160ff19168380011785556108e0565b828001600101855582156108e0579182015b828111156108df5782518255916020019190600101906108c4565b5b5090506108ed91906108f1565b5090565b5b8082111561090a5760008160009055506001016108f2565b5090565b600061092161091c84610c76565b610c51565b90508281526020810184848401111561093957600080fd5b610944848285610d0b565b509392505050565b60008135905061095b81610f38565b92915050565b600082601f83011261097257600080fd5b813561098284826020860161090e565b91505092915050565b60008135905061099a81610f4f565b92915050565b6000602082840312156109b257600080fd5b60006109c08482850161094c565b91505092915050565b600080604083850312156109dc57600080fd5b60006109ea8582860161094c565b925050602083013567ffffffffffffffff811115610a0757600080fd5b610a1385828601610961565b9150509250929050565b600060208284031215610a2f57600080fd5b6000610a3d8482850161098b565b91505092915050565b610a4f81610cc3565b82525050565b610a5e81610cd5565b82525050565b6000610a6f82610ca7565b610a798185610cb2565b9350610a89818560208601610d1a565b610a9281610e86565b840191505092915050565b6000610aaa601883610cb2565b9150610ab582610e97565b602082019050919050565b6000610acd602283610cb2565b9150610ad882610ec0565b604082019050919050565b6000610af0601e83610cb2565b9150610afb82610f0f565b602082019050919050565b610b0f81610d01565b82525050565b6000602082019050610b2a6000830184610a46565b92915050565b600060a082019050610b456000830188610a55565b610b526020830187610a46565b8181036040830152610b648186610a64565b9050610b736060830185610a55565b610b806080830184610b06565b9695505050505050565b60006020820190508181036000830152610ba381610a9d565b9050919050565b60006020820190508181036000830152610bc381610ac0565b9050919050565b60006020820190508181036000830152610be381610ae3565b9050919050565b6000602082019050610bff6000830184610b06565b92915050565b6000608082019050610c1a6000830187610b06565b8181036020830152610c2c8186610a64565b9050610c3b6040830185610b06565b610c486060830184610a46565b95945050505050565b6000610c5b610c6c565b9050610c678282610d7f565b919050565b6000604051905090565b600067ffffffffffffffff821115610c9157610c90610e57565b5b610c9a82610e86565b9050602081019050919050565b600081519050919050565b600082825260208201905092915050565b6000610cce82610ce1565b9050919050565b60008115159050919050565b600073ffffffffffffffffffffffffffffffffffffffff82169050919050565b6000819050919050565b82818337600083830152505050565b60005b83811015610d38578082015181840152602081019050610d1d565b83811115610d47576000848401525b50505050565b60006002820490506001821680610d6557607f821691505b60208210811415610d7957610d78610e28565b5b50919050565b610d8882610e86565b810181811067ffffffffffffffff82111715610da757610da6610e57565b5b80604052505050565b6000610dbb82610d01565b91507fffffffffffffffffffffffffffffffffffffffffffffffffffffffffffffffff821415610dee57610ded610df9565b5b600182019050919050565b7f4e487b7100000000000000000000000000000000000000000000000000000000600052601160045260246000fd5b7f4e487b7100000000000000000000000000000000000000000000000000000000600052602260045260246000fd5b7f4e487b7100000000000000000000000000000000000000000000000000000000600052604160045260246000fd5b6000601f19601f8301169050919050565b7f566f74657220616c726561647920726567697374657265640000000000000000600082015250565b7f4f6e6c792061646d696e2063616e2061646420566f7465722f43616e6469646160008201527f7465000000000000000000000000000000000000000000000000000000000000602082015250565b7f4d757374207265676973746572206173206120566f7465722066697273740000600082015250565b610f4181610cc3565b8114610f4c57600080fd5b50565b610f5881610d01565b8114610f6357600080fd5b5056fea2646970667358221220e1b06b717af2452a6f7263ae9492242eeef1338734657f008cfe983e18fd8db164736f6c63430008020033",
  "immutableReferences": {},
  "source": "// SPDX-License-Identifier: MIT\r\npragma solidity ^0.8.2;\r\n\r\ncontract Voting {\r\n\r\n    address public admin;\r\n\r\n    struct Candidate{\r\n        uint id;\r\n        string name;\r\n        uint voteCount;\r\n        address candidateAddress;\r\n    }\r\n\r\n    struct Voter{\r\n        bool authorized;\r\n        address voterAddress;\r\n        string name;\r\n        bool voted;\r\n        uint vote;\r\n        \r\n    }\r\n\r\n    mapping(uint => Candidate) public candidates;\r\n    mapping(address => Voter) public voters;\r\n\r\n    uint public candidatesCount;\r\n\r\n    constructor(){\r\n        admin = msg.sender;\r\n    }\r\n\r\n    modifier onlyAdmin(){\r\n        require(msg.sender == admin, \"Only admin can add Voter/Candidate\");\r\n        _;\r\n    }\r\n\r\n    function addCandidate(address _candidateAddress) public onlyAdmin{\r\n        require(voters[_candidateAddress].authorized == true, \"Must register as a Voter first\");\r\n        candidatesCount++;\r\n        candidates[candidatesCount] = Candidate(candidatesCount, voters[_candidateAddress].name, 0, _candidateAddress);\r\n    }\r\n\r\n    function addVoter(address _voterAddress, string memory _name) public onlyAdmin{\r\n        require(voters[_voterAddress].authorized == false, \"Voter already registered\");\r\n        voters[_voterAddress] = Voter(true, _voterAddress, _name, false, 0);\r\n    }\r\n\r\n}",
  "sourcePath": "D:\\PROJECTS\\Blockchain\\voting-dapp\\server\\contracts\\voting.sol",
  "compiler": {
    "name": "solc",
    "version": "0.8.2+commit.661d1103.Emscripten.clang"
  },
  "schemaVersion": "3.4.16",
  "updatedAt": "2024-02-11T11:30:40.222Z",
  "networkType": "ethereum",
  "devdoc": {
    "kind": "dev",
    "methods": {},
    "version": 1
  },
  "userdoc": {
    "kind": "user",
    "methods": {},
    "version": 1
  }
}